{
  "contractName": "decentralizedSocialMedia",
  "abi": [
    {
      "anonymous": false,
      "inputs": [
        {
          "indexed": false,
          "internalType": "string",
          "name": "commentUniqueId",
          "type": "string"
        },
        {
          "indexed": false,
          "internalType": "uint256",
          "name": "postId",
          "type": "uint256"
        },
        {
          "indexed": false,
          "internalType": "uint256",
          "name": "commentId",
          "type": "uint256"
        },
        {
          "indexed": false,
          "internalType": "address payable",
          "name": "author",
          "type": "address"
        },
        {
          "indexed": false,
          "internalType": "string",
          "name": "content",
          "type": "string"
        }
      ],
      "name": "commented",
      "type": "event"
    },
    {
      "anonymous": false,
      "inputs": [
        {
          "indexed": false,
          "internalType": "uint256",
          "name": "id",
          "type": "uint256"
        },
        {
          "indexed": false,
          "internalType": "string",
          "name": "hash",
          "type": "string"
        },
        {
          "indexed": false,
          "internalType": "string",
          "name": "description",
          "type": "string"
        },
        {
          "indexed": false,
          "internalType": "uint256",
          "name": "tipAmount",
          "type": "uint256"
        },
        {
          "indexed": false,
          "internalType": "address payable",
          "name": "author",
          "type": "address"
        },
        {
          "indexed": false,
          "internalType": "uint256",
          "name": "numLikes",
          "type": "uint256"
        },
        {
          "indexed": false,
          "internalType": "uint256",
          "name": "commentCount",
          "type": "uint256"
        }
      ],
      "name": "postCreated",
      "type": "event"
    },
    {
      "anonymous": false,
      "inputs": [
        {
          "indexed": false,
          "internalType": "uint256",
          "name": "id",
          "type": "uint256"
        },
        {
          "indexed": false,
          "internalType": "string",
          "name": "hash",
          "type": "string"
        },
        {
          "indexed": false,
          "internalType": "string",
          "name": "description",
          "type": "string"
        },
        {
          "indexed": false,
          "internalType": "uint256",
          "name": "tipAmount",
          "type": "uint256"
        },
        {
          "indexed": false,
          "internalType": "address payable",
          "name": "author",
          "type": "address"
        },
        {
          "indexed": false,
          "internalType": "uint256",
          "name": "numLikes",
          "type": "uint256"
        },
        {
          "indexed": false,
          "internalType": "uint256",
          "name": "commentCount",
          "type": "uint256"
        }
      ],
      "name": "postLiked",
      "type": "event"
    },
    {
      "anonymous": false,
      "inputs": [
        {
          "indexed": false,
          "internalType": "uint256",
          "name": "id",
          "type": "uint256"
        },
        {
          "indexed": false,
          "internalType": "string",
          "name": "hash",
          "type": "string"
        },
        {
          "indexed": false,
          "internalType": "string",
          "name": "description",
          "type": "string"
        },
        {
          "indexed": false,
          "internalType": "uint256",
          "name": "tipAmount",
          "type": "uint256"
        },
        {
          "indexed": false,
          "internalType": "address payable",
          "name": "author",
          "type": "address"
        },
        {
          "indexed": false,
          "internalType": "uint256",
          "name": "numLikes",
          "type": "uint256"
        },
        {
          "indexed": false,
          "internalType": "uint256",
          "name": "commentCount",
          "type": "uint256"
        }
      ],
      "name": "postTipped",
      "type": "event"
    },
    {
      "constant": true,
      "inputs": [
        {
          "internalType": "string",
          "name": "",
          "type": "string"
        }
      ],
      "name": "comments",
      "outputs": [
        {
          "internalType": "string",
          "name": "commentUniqueId",
          "type": "string"
        },
        {
          "internalType": "uint256",
          "name": "postId",
          "type": "uint256"
        },
        {
          "internalType": "uint256",
          "name": "commentId",
          "type": "uint256"
        },
        {
          "internalType": "address payable",
          "name": "author",
          "type": "address"
        },
        {
          "internalType": "string",
          "name": "content",
          "type": "string"
        }
      ],
      "payable": false,
      "stateMutability": "view",
      "type": "function"
    },
    {
      "constant": true,
      "inputs": [],
      "name": "name",
      "outputs": [
        {
          "internalType": "string",
          "name": "",
          "type": "string"
        }
      ],
      "payable": false,
      "stateMutability": "view",
      "type": "function"
    },
    {
      "constant": true,
      "inputs": [],
      "name": "postCount",
      "outputs": [
        {
          "internalType": "uint256",
          "name": "",
          "type": "uint256"
        }
      ],
      "payable": false,
      "stateMutability": "view",
      "type": "function"
    },
    {
      "constant": true,
      "inputs": [
        {
          "internalType": "uint256",
          "name": "",
          "type": "uint256"
        }
      ],
      "name": "posts",
      "outputs": [
        {
          "internalType": "uint256",
          "name": "id",
          "type": "uint256"
        },
        {
          "internalType": "string",
          "name": "hash",
          "type": "string"
        },
        {
          "internalType": "string",
          "name": "description",
          "type": "string"
        },
        {
          "internalType": "uint256",
          "name": "tipAmount",
          "type": "uint256"
        },
        {
          "internalType": "address payable",
          "name": "author",
          "type": "address"
        },
        {
          "internalType": "uint256",
          "name": "numLikes",
          "type": "uint256"
        },
        {
          "internalType": "uint256",
          "name": "commentCount",
          "type": "uint256"
        }
      ],
      "payable": false,
      "stateMutability": "view",
      "type": "function"
    },
    {
      "constant": false,
      "inputs": [
        {
          "internalType": "string",
          "name": "_postHash",
          "type": "string"
        },
        {
          "internalType": "string",
          "name": "_description",
          "type": "string"
        }
      ],
      "name": "createPost",
      "outputs": [],
      "payable": false,
      "stateMutability": "nonpayable",
      "type": "function"
    },
    {
      "constant": false,
      "inputs": [
        {
          "internalType": "uint256",
          "name": "_id",
          "type": "uint256"
        }
      ],
      "name": "tipPostOwner",
      "outputs": [],
      "payable": true,
      "stateMutability": "payable",
      "type": "function"
    },
    {
      "constant": false,
      "inputs": [
        {
          "internalType": "uint256",
          "name": "_id",
          "type": "uint256"
        }
      ],
      "name": "likePost",
      "outputs": [],
      "payable": true,
      "stateMutability": "payable",
      "type": "function"
    },
    {
      "constant": false,
      "inputs": [
        {
          "internalType": "uint256",
          "name": "_postId",
          "type": "uint256"
        },
        {
          "internalType": "string",
          "name": "_content",
          "type": "string"
        }
      ],
      "name": "postComment",
      "outputs": [],
      "payable": true,
      "stateMutability": "payable",
      "type": "function"
    }
  ],
  "bytecode": "0x60806040526040518060400160405280601881526020017f646563656e7472616c697a6564536f6369616c4d65646961000000000000000081525060009080519060200190620000519291906200006b565b5060006001553480156200006457600080fd5b506200011a565b828054600181600116156101000203166002900490600052602060002090601f016020900481019282601f10620000ae57805160ff1916838001178555620000df565b82800160010185558215620000df579182015b82811115620000de578251825591602001919060010190620000c1565b5b509050620000ee9190620000f2565b5090565b6200011791905b8082111562000113576000816000905550600101620000f9565b5090565b90565b611f63806200012a6000396000f3fe60806040526004361061007b5760003560e01c8063725009d31161004e578063725009d3146101425780637fb6ea121461015e578063ce010ffc1461019f578063d6313c06146101bb5761007b565b806306fdde03146100805780630b1e7f83146100ab57806317906c2e146100ee578063392338f514610119575b600080fd5b34801561008c57600080fd5b506100956101d7565b6040516100a29190611af8565b60405180910390f35b3480156100b757600080fd5b506100d260048036036100cd91908101906117a5565b610275565b6040516100e59796959493929190611d34565b60405180910390f35b3480156100fa57600080fd5b50610103610407565b6040516101109190611c9c565b60405180910390f35b34801561012557600080fd5b50610140600480360361013b9190810190611739565b61040d565b005b61015c600480360361015791908101906117a5565b610671565b005b34801561016a57600080fd5b50610185600480360361018091908101906116f8565b6109dc565b604051610196959493929190611b7b565b60405180910390f35b6101b960048036036101b491908101906117ce565b610b78565b005b6101d560048036036101d091908101906117a5565b611033565b005b60008054600181600116156101000203166002900480601f01602080910402602001604051908101604052809291908181526020018280546001816001161561010002031660029004801561026d5780601f106102425761010080835404028352916020019161026d565b820191906000526020600020905b81548152906001019060200180831161025057829003601f168201915b505050505081565b6002602052806000526040600020600091509050806000015490806001018054600181600116156101000203166002900480601f0160208091040260200160405190810160405280929190818152602001828054600181600116156101000203166002900480156103275780601f106102fc57610100808354040283529160200191610327565b820191906000526020600020905b81548152906001019060200180831161030a57829003601f168201915b505050505090806002018054600181600116156101000203166002900480601f0160208091040260200160405190810160405280929190818152602001828054600181600116156101000203166002900480156103c55780601f1061039a576101008083540402835291602001916103c5565b820191906000526020600020905b8154815290600101906020018083116103a857829003601f168201915b5050505050908060030154908060040160009054906101000a900473ffffffffffffffffffffffffffffffffffffffff16908060050154908060060154905087565b60015481565b6000825111610451576040517f08c379a000000000000000000000000000000000000000000000000000000000815260040161044890611c5c565b60405180910390fd5b6000815111610495576040517f08c379a000000000000000000000000000000000000000000000000000000000815260040161048c90611c1c565b60405180910390fd5b600073ffffffffffffffffffffffffffffffffffffffff163373ffffffffffffffffffffffffffffffffffffffff161415610505576040517f08c379a00000000000000000000000000000000000000000000000000000000081526004016104fc90611bdc565b60405180910390fd5b6001600081548092919060010191905055506040518060e001604052806001548152602001838152602001828152602001600081526020013373ffffffffffffffffffffffffffffffffffffffff1681526020016000815260200160008152506002600060015481526020019081526020016000206000820151816000015560208201518160010190805190602001906105a0929190611543565b5060408201518160020190805190602001906105bd929190611543565b506060820151816003015560808201518160040160006101000a81548173ffffffffffffffffffffffffffffffffffffffff021916908373ffffffffffffffffffffffffffffffffffffffff16021790555060a0820151816005015560c082015181600601559050507f48bb407bdc8bd2996efbb0c55ac6bd150b67c93a3c9babd02e82df1aa75f043b60015483836000336000806040516106659796959493929190611cb7565b60405180910390a15050565b60008111801561068357506001548111155b6106c2576040517f08c379a00000000000000000000000000000000000000000000000000000000081526004016106b990611bfc565b60405180910390fd5b6106ca6115c3565b600260008381526020019081526020016000206040518060e001604052908160008201548152602001600182018054600181600116156101000203166002900480601f01602080910402602001604051908101604052809291908181526020018280546001816001161561010002031660029004801561078b5780601f106107605761010080835404028352916020019161078b565b820191906000526020600020905b81548152906001019060200180831161076e57829003601f168201915b50505050508152602001600282018054600181600116156101000203166002900480601f01602080910402602001604051908101604052809291908181526020018280546001816001161561010002031660029004801561082d5780601f106108025761010080835404028352916020019161082d565b820191906000526020600020905b81548152906001019060200180831161081057829003601f168201915b50505050508152602001600382015481526020016004820160009054906101000a900473ffffffffffffffffffffffffffffffffffffffff1673ffffffffffffffffffffffffffffffffffffffff1673ffffffffffffffffffffffffffffffffffffffff16815260200160058201548152602001600682015481525050905060018160a00151018160a001818152505080600260008481526020019081526020016000206000820151816000015560208201518160010190805190602001906108f7929190611543565b506040820151816002019080519060200190610914929190611543565b506060820151816003015560808201518160040160006101000a81548173ffffffffffffffffffffffffffffffffffffffff021916908373ffffffffffffffffffffffffffffffffffffffff16021790555060a0820151816005015560c082015181600601559050507fdfd8e2acf47c94b53abf920a566c7d496c8c67b2ca1d49b84a946aecf174f20c8282602001518360400151846060015185608001518660a001518760c001516040516109d09796959493929190611d34565b60405180910390a15050565b600381805160208101820180518482526020830160208501208183528095505050505050600091509050806000018054600181600116156101000203166002900480601f016020809104026020016040519081016040528092919081815260200182805460018160011615610100020316600290048015610a9e5780601f10610a7357610100808354040283529160200191610a9e565b820191906000526020600020905b815481529060010190602001808311610a8157829003601f168201915b5050505050908060010154908060020154908060030160009054906101000a900473ffffffffffffffffffffffffffffffffffffffff1690806004018054600181600116156101000203166002900480601f016020809104026020016040519081016040528092919081815260200182805460018160011615610100020316600290048015610b6e5780601f10610b4357610100808354040283529160200191610b6e565b820191906000526020600020905b815481529060010190602001808311610b5157829003601f168201915b5050505050905085565b600082118015610b8a57506001548211155b610bc9576040517f08c379a0000000000000000000000000000000000000000000000000000000008152600401610bc090611bfc565b60405180910390fd5b6000815111610c0d576040517f08c379a0000000000000000000000000000000000000000000000000000000008152600401610c0490611c3c565b60405180910390fd5b610c156115c3565b600260008481526020019081526020016000206040518060e001604052908160008201548152602001600182018054600181600116156101000203166002900480601f016020809104026020016040519081016040528092919081815260200182805460018160011615610100020316600290048015610cd65780601f10610cab57610100808354040283529160200191610cd6565b820191906000526020600020905b815481529060010190602001808311610cb957829003601f168201915b50505050508152602001600282018054600181600116156101000203166002900480601f016020809104026020016040519081016040528092919081815260200182805460018160011615610100020316600290048015610d785780601f10610d4d57610100808354040283529160200191610d78565b820191906000526020600020905b815481529060010190602001808311610d5b57829003601f168201915b50505050508152602001600382015481526020016004820160009054906101000a900473ffffffffffffffffffffffffffffffffffffffff1673ffffffffffffffffffffffffffffffffffffffff1673ffffffffffffffffffffffffffffffffffffffff16815260200160058201548152602001600682015481525050905060008160c0015190506001810190506060610e11856113ea565b90506060610e1e836113ea565b90506060610e2c8383611517565b9050838560c00181815250508460026000898152602001908152602001600020600082015181600001556020820151816001019080519060200190610e72929190611543565b506040820151816002019080519060200190610e8f929190611543565b506060820151816003015560808201518160040160006101000a81548173ffffffffffffffffffffffffffffffffffffffff021916908373ffffffffffffffffffffffffffffffffffffffff16021790555060a0820151816005015560c082015181600601559050506040518060a001604052808281526020018881526020018581526020013373ffffffffffffffffffffffffffffffffffffffff16815260200187815250600382604051610f459190611ab2565b90815260200160405180910390206000820151816000019080519060200190610f6f929190611543565b50602082015181600101556040820151816002015560608201518160030160006101000a81548173ffffffffffffffffffffffffffffffffffffffff021916908373ffffffffffffffffffffffffffffffffffffffff1602179055506080820151816004019080519060200190610fe7929190611543565b509050507f6fe0aac9da5c65247683cc0f6f8bf292421ad2b473e30bf58d95b0b9ba4736e5818886338a604051611022959493929190611b1a565b60405180910390a150505050505050565b60008111801561104557506001548111155b611084576040517f08c379a000000000000000000000000000000000000000000000000000000000815260040161107b90611c7c565b60405180910390fd5b61108c6115c3565b600260008381526020019081526020016000206040518060e001604052908160008201548152602001600182018054600181600116156101000203166002900480601f01602080910402602001604051908101604052809291908181526020018280546001816001161561010002031660029004801561114d5780601f106111225761010080835404028352916020019161114d565b820191906000526020600020905b81548152906001019060200180831161113057829003601f168201915b50505050508152602001600282018054600181600116156101000203166002900480601f0160208091040260200160405190810160405280929190818152602001828054600181600116156101000203166002900480156111ef5780601f106111c4576101008083540402835291602001916111ef565b820191906000526020600020905b8154815290600101906020018083116111d257829003601f168201915b50505050508152602001600382015481526020016004820160009054906101000a900473ffffffffffffffffffffffffffffffffffffffff1673ffffffffffffffffffffffffffffffffffffffff1673ffffffffffffffffffffffffffffffffffffffff1681526020016005820154815260200160068201548152505090506000816080015190508073ffffffffffffffffffffffffffffffffffffffff166108fc349081150290604051600060405180830381858888f193505050501580156112bd573d6000803e3d6000fd5b50348260600151018260600181815250508160026000858152602001908152602001600020600082015181600001556020820151816001019080519060200190611308929190611543565b506040820151816002019080519060200190611325929190611543565b506060820151816003015560808201518160040160006101000a81548173ffffffffffffffffffffffffffffffffffffffff021916908373ffffffffffffffffffffffffffffffffffffffff16021790555060a0820151816005015560c082015181600601559050507fd905e798bd2ca77b430534ba9c16517dc987b707ff3426b96a03851dee398cbc83836020015184604001518560600151858760a001518860c001516040516113dd9796959493929190611d34565b60405180910390a1505050565b60606000821415611432576040518060400160405280600181526020017f30000000000000000000000000000000000000000000000000000000000000008152509050611512565b600082905060005b6000821461145c578080600101915050600a828161145457fe5b04915061143a565b6060816040519080825280601f01601f1916602001820160405280156114915781602001600182028038833980820191505090505b50905060008290508593505b6000841461150a57600a84816114af57fe5b0660300160f81b828260019003925082815181106114c957fe5b60200101907effffffffffffffffffffffffffffffffffffffffffffffffffffffffffffff1916908160001a905350600a848161150257fe5b04935061149d565b819450505050505b919050565b6060828260405160200161152c929190611ac9565b604051602081830303815290604052905092915050565b828054600181600116156101000203166002900490600052602060002090601f016020900481019282601f1061158457805160ff19168380011785556115b2565b828001600101855582156115b2579182015b828111156115b1578251825591602001919060010190611596565b5b5090506115bf9190611616565b5090565b6040518060e0016040528060008152602001606081526020016060815260200160008152602001600073ffffffffffffffffffffffffffffffffffffffff16815260200160008152602001600081525090565b61163891905b8082111561163457600081600090555060010161161c565b5090565b90565b600082601f83011261164c57600080fd5b813561165f61165a82611dde565b611db1565b9150808252602083016020830185838301111561167b57600080fd5b611686838284611eb6565b50505092915050565b600082601f8301126116a057600080fd5b81356116b36116ae82611e0a565b611db1565b915080825260208301602083018583830111156116cf57600080fd5b6116da838284611eb6565b50505092915050565b6000813590506116f281611f09565b92915050565b60006020828403121561170a57600080fd5b600082013567ffffffffffffffff81111561172457600080fd5b6117308482850161163b565b91505092915050565b6000806040838503121561174c57600080fd5b600083013567ffffffffffffffff81111561176657600080fd5b6117728582860161168f565b925050602083013567ffffffffffffffff81111561178f57600080fd5b61179b8582860161168f565b9150509250929050565b6000602082840312156117b757600080fd5b60006117c5848285016116e3565b91505092915050565b600080604083850312156117e157600080fd5b60006117ef858286016116e3565b925050602083013567ffffffffffffffff81111561180c57600080fd5b6118188582860161168f565b9150509250929050565b61182b81611e68565b82525050565b61183a81611ea4565b82525050565b600061184b82611e41565b6118558185611e4c565b9350611865818560208601611ec5565b61186e81611ef8565b840191505092915050565b600061188482611e41565b61188e8185611e5d565b935061189e818560208601611ec5565b80840191505092915050565b60006118b582611e36565b6118bf8185611e4c565b93506118cf818560208601611ec5565b6118d881611ef8565b840191505092915050565b60006118f0601d83611e4c565b91507f417574686f7220616464726573732069732064656661756c7421203a280000006000830152602082019050919050565b6000611930601083611e4c565b91507f4964206973206e6f742076616c696421000000000000000000000000000000006000830152602082019050919050565b6000611970601883611e4c565b91507f4465736372697074696f6e20697320456d70747921203a2800000000000000006000830152602082019050919050565b60006119b0601483611e4c565b91507f436f6e74656e7420697320456d70747921203a280000000000000000000000006000830152602082019050919050565b60006119f0600183611e5d565b91507f23000000000000000000000000000000000000000000000000000000000000006000830152600182019050919050565b6000611a30601683611e4c565b91507f506f7374204861736820697320456d70747921203a28000000000000000000006000830152602082019050919050565b6000611a70601183611e4c565b91507f4964206973206e6f742076616c696421210000000000000000000000000000006000830152602082019050919050565b611aac81611e9a565b82525050565b6000611abe8284611879565b915081905092915050565b6000611ad58285611879565b9150611ae0826119e3565b9150611aec8284611879565b91508190509392505050565b60006020820190508181036000830152611b1281846118aa565b905092915050565b600060a0820190508181036000830152611b348188611840565b9050611b436020830187611aa3565b611b506040830186611aa3565b611b5d6060830185611822565b8181036080830152611b6f8184611840565b90509695505050505050565b600060a0820190508181036000830152611b9581886118aa565b9050611ba46020830187611aa3565b611bb16040830186611aa3565b611bbe6060830185611822565b8181036080830152611bd081846118aa565b90509695505050505050565b60006020820190508181036000830152611bf5816118e3565b9050919050565b60006020820190508181036000830152611c1581611923565b9050919050565b60006020820190508181036000830152611c3581611963565b9050919050565b60006020820190508181036000830152611c55816119a3565b9050919050565b60006020820190508181036000830152611c7581611a23565b9050919050565b60006020820190508181036000830152611c9581611a63565b9050919050565b6000602082019050611cb16000830184611aa3565b92915050565b600060e082019050611ccc600083018a611aa3565b8181036020830152611cde8189611840565b90508181036040830152611cf28188611840565b9050611d016060830187611831565b611d0e6080830186611822565b611d1b60a0830185611831565b611d2860c0830184611831565b98975050505050505050565b600060e082019050611d49600083018a611aa3565b8181036020830152611d5b81896118aa565b90508181036040830152611d6f81886118aa565b9050611d7e6060830187611aa3565b611d8b6080830186611822565b611d9860a0830185611aa3565b611da560c0830184611aa3565b98975050505050505050565b6000604051905081810181811067ffffffffffffffff82111715611dd457600080fd5b8060405250919050565b600067ffffffffffffffff821115611df557600080fd5b601f19601f8301169050602081019050919050565b600067ffffffffffffffff821115611e2157600080fd5b601f19601f8301169050602081019050919050565b600081519050919050565b600081519050919050565b600082825260208201905092915050565b600081905092915050565b6000611e7382611e7a565b9050919050565b600073ffffffffffffffffffffffffffffffffffffffff82169050919050565b6000819050919050565b6000611eaf82611e9a565b9050919050565b82818337600083830152505050565b60005b83811015611ee3578082015181840152602081019050611ec8565b83811115611ef2576000848401525b50505050565b6000601f19601f8301169050919050565b611f1281611e9a565b8114611f1d57600080fd5b5056fea365627a7a72315820aad2745307e26a522b058c892933685e453e17298a47d8f18e300d19e989ddb96c6578706572696d656e74616cf564736f6c63430005100040",
  "source": "pragma solidity ^0.5.0;\r\npragma experimental ABIEncoderV2;\r\n\r\ncontract decentralizedSocialMedia {\r\n\r\n  string public name = \"decentralizedSocialMedia\";\r\n  uint public postCount = 0;\r\n\r\n  struct Comment {\r\n    string commentUniqueId;\r\n    uint postId;\r\n    uint commentId;\r\n    address payable author;\r\n    string content;\r\n  }\r\n\r\n  struct Post {\r\n    uint id;\r\n    string hash;\r\n    string description;\r\n    uint tipAmount;\r\n    address payable author;\r\n    uint numLikes;\r\n    uint commentCount;\r\n  }\r\n\r\n  event postCreated(\r\n    uint id,\r\n    string hash,\r\n    string description,\r\n    uint tipAmount,\r\n    address payable author,\r\n    uint numLikes,\r\n    uint commentCount\r\n  );\r\n\r\n  event postTipped(\r\n    uint id,\r\n    string hash,\r\n    string description,\r\n    uint tipAmount,\r\n    address payable author,\r\n    uint numLikes,\r\n    uint commentCount\r\n  );\r\n\r\n  event postLiked(\r\n    uint id,\r\n    string hash,\r\n    string description,\r\n    uint tipAmount,\r\n    address payable author,\r\n    uint numLikes,\r\n    uint commentCount\r\n  );\r\n\r\n  event commented(\r\n    string commentUniqueId,\r\n    uint postId,\r\n    uint commentId,\r\n    address payable author,\r\n    string content\r\n  );\r\n\r\n  mapping(uint => Post) public posts;\r\n  mapping(string => Comment) public comments;\r\n\r\n  function createPost(string memory _postHash, string memory _description) public {\r\n\r\n    require(bytes(_postHash).length > 0, \"Post Hash is Empty! :(\");\r\n    require(bytes(_description).length > 0, \"Description is Empty! :(\");\r\n    require(msg.sender != address(0x0), \"Author address is default! :(\");\r\n\r\n    postCount++;\r\n    posts[postCount] = Post(postCount, _postHash, _description, 0, msg.sender, 0, 0);\r\n    emit postCreated(postCount, _postHash, _description, 0, msg.sender, 0, 0);\r\n  }\r\n\r\n  function tipPostOwner(uint _id) public payable {\r\n\r\n    require(_id > 0 && _id <= postCount, \"Id is not valid!!\");\r\n\r\n    Post memory _post = posts[_id];\r\n    address payable author = _post.author;\r\n    address(author).transfer(msg.value);\r\n    _post.tipAmount = _post.tipAmount + msg.value;\r\n    posts[_id] = _post;\r\n    emit postTipped(_id, _post.hash, _post.description, _post.tipAmount, author, _post.numLikes, _post.commentCount);\r\n  }\r\n\r\n  function likePost(uint _id) public payable {\r\n    require(_id > 0 && _id <= postCount, \"Id is not valid!\");\r\n\r\n    Post memory _post = posts[_id];\r\n    _post.numLikes = _post.numLikes + 1;\r\n    posts[_id] = _post;\r\n    emit postLiked(_id, _post.hash, _post.description, _post.tipAmount, _post.author, _post.numLikes, _post.commentCount);\r\n  }\r\n\r\n  function concatenate(string memory a, string memory b) private pure returns (string memory) {\r\n    return string(abi.encodePacked(a,'#',b));\r\n  }\r\n\r\n  function uint2str(uint256 _i) internal pure returns (string memory str) {\r\n    if (_i == 0) {\r\n      return \"0\";\r\n    }\r\n    uint256 j = _i;\r\n    uint256 length;\r\n    while (j != 0) {\r\n      length++;\r\n      j /= 10;\r\n    }\r\n    bytes memory bstr = new bytes(length);\r\n    uint256 k = length;\r\n    j = _i;\r\n    while (j != 0) {\r\n      bstr[--k] = bytes1(uint8(48 + j % 10));\r\n      j /= 10;\r\n    }\r\n    str = string(bstr);\r\n  }\r\n\r\n  function postComment(uint _postId, string memory _content) public payable {\r\n    require(_postId > 0 && _postId <= postCount, \"Id is not valid!\");\r\n    require(bytes(_content).length > 0, \"Content is Empty! :(\");\r\n\r\n    Post memory _post = posts[_postId];\r\n    uint commentCount = _post.commentCount;\r\n    commentCount = commentCount + 1;\r\n    string memory a = uint2str(_postId);\r\n    string memory b = uint2str(commentCount);\r\n    string memory uniqueId = concatenate(a, b);\r\n    _post.commentCount = commentCount;\r\n    posts[_postId] = _post;\r\n    comments[uniqueId] = Comment(uniqueId, _postId, commentCount, msg.sender, _content);\r\n    emit commented(uniqueId, _postId, commentCount, msg.sender, _content);\r\n  }\r\n}",
  "sourcePath": "C:/Users/Tanmay/decentralized-social-media/src/contracts/decentralizedSocialMedia.sol",
  "compiler": {
    "name": "solc",
    "version": "0.5.16+commit.9c3226ce.Emscripten.clang"
  },
  "schemaVersion": "3.2.3",
  "updatedAt": "2023-10-15T15:40:06.491Z",
  "networkType": "ethereum",
  "devdoc": {
    "methods": {}
  },
  "userdoc": {
    "methods": {}
  }
}