{
  "contractName": "decentralizedSocialMedia",
  "abi": [
    {
      "anonymous": false,
      "inputs": [
        {
          "indexed": false,
          "internalType": "uint256",
          "name": "id",
          "type": "uint256"
        },
        {
          "indexed": false,
          "internalType": "string",
          "name": "hash",
          "type": "string"
        },
        {
          "indexed": false,
          "internalType": "string",
          "name": "description",
          "type": "string"
        },
        {
          "indexed": false,
          "internalType": "uint256",
          "name": "tipAmount",
          "type": "uint256"
        },
        {
          "indexed": false,
          "internalType": "address payable",
          "name": "author",
          "type": "address"
        },
        {
          "indexed": false,
          "internalType": "uint256",
          "name": "numLikes",
          "type": "uint256"
        }
      ],
      "name": "postCreated",
      "type": "event"
    },
    {
      "anonymous": false,
      "inputs": [
        {
          "indexed": false,
          "internalType": "uint256",
          "name": "id",
          "type": "uint256"
        },
        {
          "indexed": false,
          "internalType": "string",
          "name": "hash",
          "type": "string"
        },
        {
          "indexed": false,
          "internalType": "string",
          "name": "description",
          "type": "string"
        },
        {
          "indexed": false,
          "internalType": "uint256",
          "name": "tipAmount",
          "type": "uint256"
        },
        {
          "indexed": false,
          "internalType": "address payable",
          "name": "author",
          "type": "address"
        },
        {
          "indexed": false,
          "internalType": "uint256",
          "name": "numLikes",
          "type": "uint256"
        }
      ],
      "name": "postLiked",
      "type": "event"
    },
    {
      "anonymous": false,
      "inputs": [
        {
          "indexed": false,
          "internalType": "uint256",
          "name": "id",
          "type": "uint256"
        },
        {
          "indexed": false,
          "internalType": "string",
          "name": "hash",
          "type": "string"
        },
        {
          "indexed": false,
          "internalType": "string",
          "name": "description",
          "type": "string"
        },
        {
          "indexed": false,
          "internalType": "uint256",
          "name": "tipAmount",
          "type": "uint256"
        },
        {
          "indexed": false,
          "internalType": "address payable",
          "name": "author",
          "type": "address"
        },
        {
          "indexed": false,
          "internalType": "uint256",
          "name": "numLikes",
          "type": "uint256"
        }
      ],
      "name": "postTipped",
      "type": "event"
    },
    {
      "constant": true,
      "inputs": [],
      "name": "name",
      "outputs": [
        {
          "internalType": "string",
          "name": "",
          "type": "string"
        }
      ],
      "payable": false,
      "stateMutability": "view",
      "type": "function"
    },
    {
      "constant": true,
      "inputs": [],
      "name": "postCount",
      "outputs": [
        {
          "internalType": "uint256",
          "name": "",
          "type": "uint256"
        }
      ],
      "payable": false,
      "stateMutability": "view",
      "type": "function"
    },
    {
      "constant": true,
      "inputs": [
        {
          "internalType": "uint256",
          "name": "",
          "type": "uint256"
        }
      ],
      "name": "posts",
      "outputs": [
        {
          "internalType": "uint256",
          "name": "id",
          "type": "uint256"
        },
        {
          "internalType": "string",
          "name": "hash",
          "type": "string"
        },
        {
          "internalType": "string",
          "name": "description",
          "type": "string"
        },
        {
          "internalType": "uint256",
          "name": "tipAmount",
          "type": "uint256"
        },
        {
          "internalType": "address payable",
          "name": "author",
          "type": "address"
        },
        {
          "internalType": "uint256",
          "name": "numLikes",
          "type": "uint256"
        }
      ],
      "payable": false,
      "stateMutability": "view",
      "type": "function"
    },
    {
      "constant": false,
      "inputs": [
        {
          "internalType": "string",
          "name": "_postHash",
          "type": "string"
        },
        {
          "internalType": "string",
          "name": "_description",
          "type": "string"
        }
      ],
      "name": "createPost",
      "outputs": [],
      "payable": false,
      "stateMutability": "nonpayable",
      "type": "function"
    },
    {
      "constant": false,
      "inputs": [
        {
          "internalType": "uint256",
          "name": "_id",
          "type": "uint256"
        }
      ],
      "name": "tipPostOwner",
      "outputs": [],
      "payable": true,
      "stateMutability": "payable",
      "type": "function"
    },
    {
      "constant": false,
      "inputs": [
        {
          "internalType": "uint256",
          "name": "_id",
          "type": "uint256"
        }
      ],
      "name": "likePost",
      "outputs": [],
      "payable": false,
      "stateMutability": "nonpayable",
      "type": "function"
    }
  ],
  "bytecode": "0x60806040526040518060400160405280601881526020017f646563656e7472616c697a6564536f6369616c4d65646961000000000000000081525060009080519060200190620000519291906200006b565b5060006001553480156200006457600080fd5b506200011a565b828054600181600116156101000203166002900490600052602060002090601f016020900481019282601f10620000ae57805160ff1916838001178555620000df565b82800160010185558215620000df579182015b82811115620000de578251825591602001919060010190620000c1565b5b509050620000ee9190620000f2565b5090565b6200011791905b8082111562000113576000816000905550600101620000f9565b5090565b90565b611515806200012a6000396000f3fe6080604052600436106100555760003560e01c806306fdde031461005a5780630b1e7f83146100ea57806317906c2e14610252578063392338f51461027d578063725009d3146103dc578063d6313c0614610417575b600080fd5b34801561006657600080fd5b5061006f610445565b6040518080602001828103825283818151815260200191508051906020019080838360005b838110156100af578082015181840152602081019050610094565b50505050905090810190601f1680156100dc5780820380516001836020036101000a031916815260200191505b509250505060405180910390f35b3480156100f657600080fd5b506101236004803603602081101561010d57600080fd5b81019080803590602001909291905050506104e3565b6040518087815260200180602001806020018681526020018573ffffffffffffffffffffffffffffffffffffffff1673ffffffffffffffffffffffffffffffffffffffff168152602001848152602001838103835288818151815260200191508051906020019080838360005b838110156101ab578082015181840152602081019050610190565b50505050905090810190601f1680156101d85780820380516001836020036101000a031916815260200191505b50838103825287818151815260200191508051906020019080838360005b838110156102115780820151818401526020810190506101f6565b50505050905090810190601f16801561023e5780820380516001836020036101000a031916815260200191505b509850505050505050505060405180910390f35b34801561025e57600080fd5b5061026761066f565b6040518082815260200191505060405180910390f35b34801561028957600080fd5b506103da600480360360408110156102a057600080fd5b81019080803590602001906401000000008111156102bd57600080fd5b8201836020820111156102cf57600080fd5b803590602001918460018302840111640100000000831117156102f157600080fd5b91908080601f016020809104026020016040519081016040528093929190818152602001838380828437600081840152601f19601f8201169050808301925050505050505091929192908035906020019064010000000081111561035457600080fd5b82018360208201111561036657600080fd5b8035906020019184600183028401116401000000008311171561038857600080fd5b91908080601f016020809104026020016040519081016040528093929190818152602001838380828437600081840152601f19601f820116905080830192505050505050509192919290505050610675565b005b3480156103e857600080fd5b50610415600480360360208110156103ff57600080fd5b8101908080359060200190929190505050610a73565b005b6104436004803603602081101561042d57600080fd5b8101908080359060200190929190505050610f0b565b005b60008054600181600116156101000203166002900480601f0160208091040260200160405190810160405280929190818152602001828054600181600116156101000203166002900480156104db5780601f106104b0576101008083540402835291602001916104db565b820191906000526020600020905b8154815290600101906020018083116104be57829003601f168201915b505050505081565b6002602052806000526040600020600091509050806000015490806001018054600181600116156101000203166002900480601f0160208091040260200160405190810160405280929190818152602001828054600181600116156101000203166002900480156105955780601f1061056a57610100808354040283529160200191610595565b820191906000526020600020905b81548152906001019060200180831161057857829003601f168201915b505050505090806002018054600181600116156101000203166002900480601f0160208091040260200160405190810160405280929190818152602001828054600181600116156101000203166002900480156106335780601f1061060857610100808354040283529160200191610633565b820191906000526020600020905b81548152906001019060200180831161061657829003601f168201915b5050505050908060030154908060040160009054906101000a900473ffffffffffffffffffffffffffffffffffffffff16908060050154905086565b60015481565b60008251116106ec576040517f08c379a00000000000000000000000000000000000000000000000000000000081526004018080602001828103825260168152602001807f506f7374204861736820697320456d70747921203a280000000000000000000081525060200191505060405180910390fd5b6000815111610763576040517f08c379a00000000000000000000000000000000000000000000000000000000081526004018080602001828103825260188152602001807f4465736372697074696f6e20697320456d70747921203a28000000000000000081525060200191505060405180910390fd5b600073ffffffffffffffffffffffffffffffffffffffff163373ffffffffffffffffffffffffffffffffffffffff161415610806576040517f08c379a000000000000000000000000000000000000000000000000000000000815260040180806020018281038252601d8152602001807f417574686f7220616464726573732069732064656661756c7421203a2800000081525060200191505060405180910390fd5b6001600081548092919060010191905055506040518060c001604052806001548152602001838152602001828152602001600081526020013373ffffffffffffffffffffffffffffffffffffffff168152602001600081525060026000600154815260200190815260200160002060008201518160000155602082015181600101908051906020019061089a9291906113ef565b5060408201518160020190805190602001906108b79291906113ef565b506060820151816003015560808201518160040160006101000a81548173ffffffffffffffffffffffffffffffffffffffff021916908373ffffffffffffffffffffffffffffffffffffffff16021790555060a082015181600501559050507ffee3f5e8ad57985b0de0a26573b5685440bec7ad8743354610b600d183037e8c600154838360003360006040518087815260200180602001806020018681526020018573ffffffffffffffffffffffffffffffffffffffff1673ffffffffffffffffffffffffffffffffffffffff168152602001848152602001838103835288818151815260200191508051906020019080838360005b838110156109c95780820151818401526020810190506109ae565b50505050905090810190601f1680156109f65780820380516001836020036101000a031916815260200191505b50838103825287818151815260200191508051906020019080838360005b83811015610a2f578082015181840152602081019050610a14565b50505050905090810190601f168015610a5c5780820380516001836020036101000a031916815260200191505b509850505050505050505060405180910390a15050565b600081118015610a8557506001548111155b610af7576040517f08c379a00000000000000000000000000000000000000000000000000000000081526004018080602001828103825260108152602001807f4964206973206e6f742076616c6964210000000000000000000000000000000081525060200191505060405180910390fd5b610aff61146f565b600260008381526020019081526020016000206040518060c001604052908160008201548152602001600182018054600181600116156101000203166002900480601f016020809104026020016040519081016040528092919081815260200182805460018160011615610100020316600290048015610bc05780601f10610b9557610100808354040283529160200191610bc0565b820191906000526020600020905b815481529060010190602001808311610ba357829003601f168201915b50505050508152602001600282018054600181600116156101000203166002900480601f016020809104026020016040519081016040528092919081815260200182805460018160011615610100020316600290048015610c625780601f10610c3757610100808354040283529160200191610c62565b820191906000526020600020905b815481529060010190602001808311610c4557829003601f168201915b50505050508152602001600382015481526020016004820160009054906101000a900473ffffffffffffffffffffffffffffffffffffffff1673ffffffffffffffffffffffffffffffffffffffff1673ffffffffffffffffffffffffffffffffffffffff168152602001600582015481525050905060018160a00151018160a00181815250508060026000848152602001908152602001600020600082015181600001556020820151816001019080519060200190610d229291906113ef565b506040820151816002019080519060200190610d3f9291906113ef565b506060820151816003015560808201518160040160006101000a81548173ffffffffffffffffffffffffffffffffffffffff021916908373ffffffffffffffffffffffffffffffffffffffff16021790555060a082015181600501559050507ffe0d2f76982e9cb50facea604698fbb8a148074309e246e15398f4fd30b9ca3b8282602001518360400151846060015185608001518660a001516040518087815260200180602001806020018681526020018573ffffffffffffffffffffffffffffffffffffffff1673ffffffffffffffffffffffffffffffffffffffff168152602001848152602001838103835288818151815260200191508051906020019080838360005b83811015610e61578082015181840152602081019050610e46565b50505050905090810190601f168015610e8e5780820380516001836020036101000a031916815260200191505b50838103825287818151815260200191508051906020019080838360005b83811015610ec7578082015181840152602081019050610eac565b50505050905090810190601f168015610ef45780820380516001836020036101000a031916815260200191505b509850505050505050505060405180910390a15050565b600081118015610f1d57506001548111155b610f8f576040517f08c379a00000000000000000000000000000000000000000000000000000000081526004018080602001828103825260118152602001807f4964206973206e6f742076616c6964212100000000000000000000000000000081525060200191505060405180910390fd5b610f9761146f565b600260008381526020019081526020016000206040518060c001604052908160008201548152602001600182018054600181600116156101000203166002900480601f0160208091040260200160405190810160405280929190818152602001828054600181600116156101000203166002900480156110585780601f1061102d57610100808354040283529160200191611058565b820191906000526020600020905b81548152906001019060200180831161103b57829003601f168201915b50505050508152602001600282018054600181600116156101000203166002900480601f0160208091040260200160405190810160405280929190818152602001828054600181600116156101000203166002900480156110fa5780601f106110cf576101008083540402835291602001916110fa565b820191906000526020600020905b8154815290600101906020018083116110dd57829003601f168201915b50505050508152602001600382015481526020016004820160009054906101000a900473ffffffffffffffffffffffffffffffffffffffff1673ffffffffffffffffffffffffffffffffffffffff1673ffffffffffffffffffffffffffffffffffffffff16815260200160058201548152505090506000816080015190508073ffffffffffffffffffffffffffffffffffffffff166108fc349081150290604051600060405180830381858888f193505050501580156111be573d6000803e3d6000fd5b503482606001510182606001818152505081600260008581526020019081526020016000206000820151816000015560208201518160010190805190602001906112099291906113ef565b5060408201518160020190805190602001906112269291906113ef565b506060820151816003015560808201518160040160006101000a81548173ffffffffffffffffffffffffffffffffffffffff021916908373ffffffffffffffffffffffffffffffffffffffff16021790555060a082015181600501559050507f3ff3728dd5a482caa86e3bf081be3ca0353f55106c6487c03974a36c4c11f2c283836020015184604001518560600151858760a001516040518087815260200180602001806020018681526020018573ffffffffffffffffffffffffffffffffffffffff1673ffffffffffffffffffffffffffffffffffffffff168152602001848152602001838103835288818151815260200191508051906020019080838360005b83811015611344578082015181840152602081019050611329565b50505050905090810190601f1680156113715780820380516001836020036101000a031916815260200191505b50838103825287818151815260200191508051906020019080838360005b838110156113aa57808201518184015260208101905061138f565b50505050905090810190601f1680156113d75780820380516001836020036101000a031916815260200191505b509850505050505050505060405180910390a1505050565b828054600181600116156101000203166002900490600052602060002090601f016020900481019282601f1061143057805160ff191683800117855561145e565b8280016001018555821561145e579182015b8281111561145d578251825591602001919060010190611442565b5b50905061146b91906114bb565b5090565b6040518060c0016040528060008152602001606081526020016060815260200160008152602001600073ffffffffffffffffffffffffffffffffffffffff168152602001600081525090565b6114dd91905b808211156114d95760008160009055506001016114c1565b5090565b9056fea265627a7a72315820674a9284e09eafda6d2f05586b0c91d5c0c86963a7ef09caf6e9466b0b3dad6264736f6c63430005100032",
  "source": "pragma solidity ^0.5.0;\r\n\r\ncontract decentralizedSocialMedia {\r\n\r\n  string public name = \"decentralizedSocialMedia\";\r\n  uint public postCount = 0;\r\n\r\n  struct Post {\r\n    uint id;\r\n    string hash;\r\n    string description;\r\n    uint tipAmount;\r\n    address payable author;\r\n    uint numLikes;\r\n  }\r\n\r\n  event postCreated(\r\n    uint id,\r\n    string hash,\r\n    string description,\r\n    uint tipAmount,\r\n    address payable author,\r\n    uint numLikes\r\n  );\r\n\r\n  event postTipped(\r\n    uint id,\r\n    string hash,\r\n    string description,\r\n    uint tipAmount,\r\n    address payable author,\r\n    uint numLikes\r\n  );\r\n\r\n  event postLiked(\r\n    uint id,\r\n    string hash,\r\n    string description,\r\n    uint tipAmount,\r\n    address payable author,\r\n    uint numLikes\r\n  );\r\n\r\n  mapping(uint => Post) public posts;\r\n\r\n  function createPost(string memory _postHash, string memory _description) public {\r\n\r\n    require(bytes(_postHash).length > 0, \"Post Hash is Empty! :(\");\r\n    require(bytes(_description).length > 0, \"Description is Empty! :(\");\r\n    require(msg.sender != address(0x0), \"Author address is default! :(\");\r\n\r\n    postCount++;\r\n    posts[postCount] = Post(postCount, _postHash, _description, 0, msg.sender, 0);\r\n    emit postCreated(postCount, _postHash, _description, 0, msg.sender, 0);\r\n  }\r\n\r\n  function tipPostOwner(uint _id) public payable {\r\n\r\n    require(_id > 0 && _id <= postCount, \"Id is not valid!!\");\r\n\r\n    Post memory _post = posts[_id];\r\n    address payable author = _post.author;\r\n    address(author).transfer(msg.value);\r\n    _post.tipAmount = _post.tipAmount + msg.value;\r\n    posts[_id] = _post;\r\n    emit postTipped(_id, _post.hash, _post.description, _post.tipAmount, author, _post.numLikes);\r\n  }\r\n\r\n  function likePost(uint _id) public {\r\n    require(_id > 0 && _id <= postCount, \"Id is not valid!\");\r\n\r\n    Post memory _post = posts[_id];\r\n    _post.numLikes = _post.numLikes + 1;\r\n    posts[_id] = _post;\r\n    emit postLiked(_id, _post.hash, _post.description, _post.tipAmount, _post.author, _post.numLikes);\r\n  }\r\n\r\n}",
  "sourcePath": "C:/Users/Tanmay/decentralized-social-media/src/contracts/decentralizedSocialMedia.sol",
  "compiler": {
    "name": "solc",
    "version": "0.5.16+commit.9c3226ce.Emscripten.clang"
  },
  "schemaVersion": "3.2.3",
  "updatedAt": "2022-07-01T05:45:45.748Z",
  "networkType": "ethereum",
  "devdoc": {
    "methods": {}
  },
  "userdoc": {
    "methods": {}
  }
}